:100000000C9462000C948A000C948A000C948A0070
:100010000C948A000C948A000C948A000C948A0038
:100020000C948A000C948A000C948A000C948A0028
:100030000C948A000C948A000C948A000C948A0018
:100040000C9492040C948A000C9464060C943E0662
:100050000C948A000C948A000C948A000C948A00F8
:100060000C948A000C948A000000000024002700F1
:100070002A0000000000250028002B0000000000DE
:1000800023002600290004040404040404040202DA
:100090000202020203030303030301020408102007
:1000A0004080010204081020010204081020000012
:1000B0000008000201000003040700000000000027
:1000C0000000230711241FBECFEFD8E0DEBFCDBF55
:1000D00011E0A0E0B1E0ECE6F3E102C005900D9282
:1000E000A232B107D9F721E0A2E2B1E001C01D922E
:1000F000A83CB207E1F710E0C2E6D0E004C02197C7
:10010000FE010E947207C136D107C9F70E94160787
:100110000C94B4090C940000EF92FF920F931F937C
:1001200062E070E021E030E000E010E0C801790119
:10013000A8010E94020763E070E0C8019701A801CE
:100140000E94020765E070E0C8019701A8010E94C3
:10015000020764E070E0C8019701A8010E9402074D
:1001600069E070E0C8019701A8010E9402076AE0F7
:1001700070E0C8019701A8010E940207B701C801F9
:100180009801A8010E94020766E070E0C80198018A
:10019000A8010E9402071F910F91FF90EF90089510
:1001A0009F92AF92BF92CF92DF92EF92FF920F9306
:1001B0001F93CF93DF93CDB7DEB724970FB6F89494
:1001C000DEBF0FBECDBF61E070E000E010E0C8010F
:1001D0000E940A077C0181E09A83898361305B0178
:1001E0007105E006F1069C838B8319F0812D9C83B9
:1001F0008B8366E070E0C8010E940A0761307105D8
:100200008007910721E009F0212D8B819C81822BB1
:100210008170922E803011F4680103C0680104E6F9
:1002200010E069E070E0C6019801A6010E94120783
:100230006AE070E0C6019801A6010E941207C5019C
:1002400081309105EC04FD0419F4812D9A83898392
:1002500009811A8109210170107062E070E0C60105
:100260009801A6010E9406078B819C81282F21708E
:10027000307063E070E0C6017901A6010E940607B4
:1002800065E070E0C6019801A6010E94060764E0DF
:1002900070E0C6019701A6010E94060724960FB6DA
:1002A000F894DEBF0FBECDBFDF91CF911F910F91AC
:1002B000FF90EF90DF90CF90BF90AF909F90089508
:1002C000833081F028F4813099F08230A9F00895CC
:1002D0008730A9F08830C9F08430B1F48091800073
:1002E0008F7D03C0809180008F7780938000089578
:1002F00084B58F7784BD089584B58F7DFBCF8091C1
:10030000B0008F778093B00008958091B0008F7D0A
:10031000F9CF3FB7F8948091C4019091C501A091A5
:10032000C601B091C70126B5A89B05C02F3F19F0A3
:100330000196A11DB11D3FBFBA2FA92F982F882765
:10034000BC01CD01620F711D811D911D42E0660F40
:10035000771F881F991F4A95D1F70895DC01ED9109
:10036000FC910190F081E02D0994AF92BF92CF9261
:10037000DF92EF92FF920F931F93CF93DF936C0165
:100380007B018B01040F151FEB015E01AE18BF0846
:10039000C017D10759F06991D601ED91FC910190F8
:1003A000F081E02DC6010995892B79F7C501DF9110
:1003B000CF911F910F91FF90EF90DF90CF90BF9062
:1003C000AF900895FC01538D448D252F30E0842F8C
:1003D00090E0821B930B541710F0CF96089501976D
:1003E0000895FC01918D828D981761F0A28DAE0F5A
:1003F000BF2FB11D5D968C91928D9F5F9F73928FE1
:1004000090E008958FEF9FEF0895FC01918D828D0C
:10041000981731F0828DE80FF11D858D90E00895D9
:100420008FEF9FEF0895FC01918D228D892F90E031
:10043000805C9F4F821B91098F739927089582E2F8
:1004400091E00E94130221E0892B09F420E0822F21
:100450000895FC01A48DA80FB92FB11DA35ABF4F59
:100460002C91848D90E001968F739927848FA689B3
:10047000B7892C93A089B1898C91837080648C9307
:10048000938D848D981306C00288F389E02D8081B6
:100490008F7D80830895EF92FF920F931F93CF93E8
:1004A000DF93EC0181E0888F9B8D8C8D98131AC0AF
:1004B000E889F989808185FF15C09FB7F894EE8996
:1004C000FF896083E889F9898081837080648083F3
:1004D0009FBF81E090E0DF91CF911F910F91FF903E
:1004E000EF900895F62E0B8D10E00F5F1F4F0F73E6
:1004F0001127E02E8C8D8E110CC00FB607FCFACFA1
:10050000E889F989808185FFF5CFCE010E94290213
:10051000F1CFEB8DEC0FFD2FF11DE35AFF4FF08271
:100520009FB7F8940B8FEA89FB8980818062CFCFD7
:10053000CF93DF93EC01888D8823B9F0AA89BB891A
:10054000E889F9898C9185FD03C0808186FD0DC005
:100550000FB607FCF7CF8C9185FFF2CF808185FF26
:10056000EDCFCE010E942902E9CFDF91CF9108950E
:10057000FB0101900020E9F73197AF01461B570BB3
:10058000DC01ED91FC910280F381E02D09948F92C2
:100590009F92AF92BF92EF92FF920F931F93CF93D0
:1005A000DF93CDB7DEB7A1970FB6F894DEBF0FBECD
:1005B000CDBF7C01FA01CB0119A2223008F42AE058
:1005C0008E010F5D1F4F822E912CB12CA12CBF01EB
:1005D000A50194010E945007F901CA016A300CF587
:1005E000605DD8016E938D01232B242B252B79F789
:1005F00090E080E0109721F0BD01C7010E94B80291
:10060000A1960FB6F894DEBF0FBECDBFDF91CF919C
:100610001F910F91FF90EF90BF90AF909F908F90A0
:100620000895695CDECFCF93DF93282F30E0F90186
:10063000E255FF4F8491F901E656FF4FD491F9013D
:10064000EA57FF4FC491CC23A1F081110E946001B1
:10065000EC2FF0E0EE0FFF1FE458FF4FA591B4918F
:10066000EC91ED2381E090E009F480E0DF91CF91FF
:10067000089580E090E0FACF1F93CF93DF93282F67
:1006800030E0F901E255FF4F8491F901E656FF4F42
:10069000D491F901EA57FF4FC491CC23A9F0162F4A
:1006A00081110E946001EC2FF0E0EE0FFF1FEE5869
:1006B000FF4FA591B4918FB7F894EC91111108C038
:1006C000D095DE23DC938FBFDF91CF911F910895EA
:1006D000DE2BF8CFCF93DF9390E0FC01E656FF4F7F
:1006E00024918A579F4FFC0184918823C9F090E0A0
:1006F000880F991FFC01E859FF4FA591B491FC01A7
:10070000EE58FF4FC591D49161110DC09FB7F89479
:100710008C91209582238C938881282328839FBFE6
:10072000DF91CF910895623051F49FB7F8943C91D6
:10073000822F809583238C93E8812E2BEFCF8FB768
:10074000F894EC912E2B2C938FBFEACF1F93CF936D
:10075000DF93182FEB0161E00E946A03209739F4C0
:1007600060E0812FDF91CF911F910C943C03CF3F2C
:10077000D10511F461E0F5CFE12FF0E0E255FF4F34
:10078000E491E33031F140F4E130B1F0E230E1F0F6
:10079000C038D1057CF7E4CFE73029F1E83059F1D2
:1007A000E430B1F780918000806280938000D09324
:1007B0008B00C0938A0004C084B5806884BDC7BD27
:1007C000DF91CF911F91089584B5806284BDC8BD2B
:1007D000F7CF80918000806880938000D09389005B
:1007E000C0938800EDCF8091B00080688093B00006
:1007F000C093B300E5CF8091B00080628093B000D9
:10080000C093B400DDCF8E3008F08E5087708064C6
:1008100080937C0080917A00806480937A0080913C
:100820007A0086FDFCCF8091780090917900089540
:10083000789484B5826084BD84B5816084BD85B5BB
:10084000826085BD85B5816085BDEEE6F0E0808182
:1008500081608083E1E8F0E01082808182608083A3
:10086000808181608083E0E8F0E080818160808326
:10087000E1EBF0E0808184608083E0EBF0E0808158
:1008800081608083EAE7F0E08081846080838081FA
:1008900082608083808181608083808180688083A2
:1008A0001092C10008958F929F92AF92BF92CF9203
:1008B000DF92EF92FF926B017C010E9489014B0154
:1008C0005C01C114D104E104F104B9F00E94890172
:1008D000681979098A099B09683E73408105910569
:1008E00080F321E0C21AD108E108F10888EE880EF1
:1008F00083E0981EA11CB11CE4CFFF90EF90DF9025
:10090000CF90BF90AF909F908F9008952FB7F8949D
:100910006091C0017091C1018091C2019091C301A9
:100920002FBF08951F920F920FB60F9211242F938D
:100930003F938F939F93AF93BF938091C00190910A
:10094000C101A091C201B091C3013091BF0123E068
:10095000230F2D3758F50196A11DB11D2093BF011E
:100960008093C0019093C101A093C201B093C301D1
:100970008091C4019091C501A091C601B091C701B9
:100980000196A11DB11D8093C4019093C501A09350
:10099000C601B093C701BF91AF919F918F913F91D5
:1009A0002F910F900FBE0F901F90189526E8230FE0
:1009B0000296A11DB11DD2CF4F925F926F927F928E
:1009C0008F929F92AF92BF92EF92FF920F931F93DD
:1009D000CF93DF938C014A015B01E22EAB019401BE
:1009E000CB01B4010E94AF0962E171E081111AC02C
:1009F00024013501E89477F82FEF3FEF4FE75FE7E9
:100A0000C301B2010E94AF09811126C02FEF3FEF51
:100A10004FE75FE7C301B2010E94E5071816E4F44F
:100A200066E171E0C8010E94B802EC016EE171E07C
:100A3000C8010E94B8028C0F9D1FDF91CF911F91BA
:100A40000F91FF90EF90BF90AF909F908F907F900D
:100A50006F905F904F9008952FEF3FEF4FE75FE467
:100A6000C501B4010E943D0918161CF46AE171E049
:100A7000D9CF2FEF3FEF4FE75FECC501B4010E94E4
:100A8000E50787FDF3CF20E030E0A901C501B401FF
:100A90000E94E507D0E0C0E087FF09C06DE2C80111
:100AA0000E94AE01EC01B7FAB094B7F8B094FE2CF6
:100AB000712C60E070E080E09FE37E1440F420E061
:100AC00030E040E251E40E94EA077394F6CFA501BA
:100AD00094010E9479074B015C010E945C082B0184
:100AE0003C012AE0BC01A201C8010E94C702C80F54
:100AF000D91FEE2009F49ACFC301B2010E948B08DE
:100B00009B01AC01C501B4010E9478074B015C0157
:100B10006EE2C8010E94AE01C80FD91FFA948FEF90
:100B2000F81609F483CF20E030E040E251E4C5013B
:100B3000B4010E9442092B013C010E945C084B0158
:100B4000B12CA12C2AE0B501A401C8010E94C70262
:100B5000C80FD91FC501B4010E948B089B01AC01CD
:100B6000C301B2010E9478074B015C01D7CFCF923D
:100B7000DF92EF92FF920F931F93CF93DF93EC01DD
:100B80006A017B012115310549F4E881F981019061
:100B9000F081E02D642F09958C0117C02A303105B2
:100BA00021F52AE0F7FE21C06DE20E94AE018C0122
:100BB00044275527BA014C195D096E097F092AE0BF
:100BC000CE010E94C702080F191F6EE171E0CE012D
:100BD0000E94B802800F911FDF91CF911F910F915A
:100BE000FF90EF90DF90CF900895B701A601CE015E
:100BF0000E94C702D1CF0F931F93CF93DF938C0135
:100C0000D0E0C0E06115710519F00E94B802EC0156
:100C10006EE171E0C8010E94B8028C0F9D1FDF9148
:100C2000CF911F910F910895EF92FF920F931F9311
:100C3000CF93DF938C017B01D0E0C0E0F701EC0F94
:100C4000FD1F6491662361F0D801ED91FC91019044
:100C5000F081E02DC8010995892B11F02196EECF86
:100C60006EE171E0C8010E94B8028C0F9D1FDF91F8
:100C7000CF911F910F91FF90EF9008951F920F92C7
:100C80000FB60F9211242F933F934F935F936F935F
:100C90007F938F939F93AF93BF93EF93FF9382E2E2
:100CA00091E00E942902FF91EF91BF91AF919F9136
:100CB0008F917F916F915F914F913F912F910F9005
:100CC0000FBE0F901F9018951F920F920FB60F92A4
:100CD00011242F938F939F93EF93FF93E091320111
:100CE000F09133018081E0913801F091390182FD6A
:100CF0001BC0908180913B018F5F8F7320913C01DD
:100D0000821741F0E0913B01F0E0EE5DFE4F958FE0
:100D100080933B01FF91EF919F918F912F910F90C5
:100D20000FBE0F901F9018958081F4CFCF92DF9265
:100D3000EF92FF921F93CF93DF93EC016A017B0147
:100D4000122FE889F98982E08083C11481EED806E8
:100D5000E104F104A1F060E079E08DE390E0A70107
:100D600096010E94500721503109410951095695B9
:100D7000479537952795211580E1380798F0E88940
:100D8000F989108260E874E88EE190E0A70196018D
:100D90000E94500721503109410951095695479544
:100DA00037952795EC85FD853083EE85FF8520837B
:100DB000188EEC89FD891083EA89FB898081806126
:100DC0008083EA89FB89808188608083EA89FB8946
:100DD000808180688083EA89FB8980818F7D808320
:100DE000DF91CF911F91FF90EF90DF90CF9008950A
:100DF00080E090E0892B29F00E941F0281110C9461
:100E000000000895862F622F0C946A03862F622FAC
:100E10000C943C03862F0E941303BC01990F880B8E
:100E2000990B0895862FB9010C94A6030E9418040B
:100E30000E948C00C8EFD6E00E94D0002097E1F31A
:100E40000E94F806F9CFE2E2F1E01382128288EE06
:100E500093E0A0E0B0E084839583A683B78384E029
:100E600091E09183808385EC90E09587848784EC82
:100E700090E09787868780EC90E0918B808B81EC67
:100E800090E0938B828B82EC90E0958B848B86EC48
:100E900090E0978B868B118E128E138E148E089590
:100EA000A1E21A2EAA1BBB1BFD010DC0AA1FBB1F6E
:100EB000EE1FFF1FA217B307E407F50720F0A21BE0
:100EC000B30BE40BF50B661F771F881F991F1A944D
:100ED00069F760957095809590959B01AC01BD0177
:100EE000CF010895EE0FFF1F0590F491E02D0994B6
:100EF0005058BB27AA270E9490070C9403090E9410
:100F0000F50838F00E94FC0820F039F49F3F19F4EE
:100F100026F40C94F2080EF4E095E7FB0C94EC0830
:100F2000E92F0E94140958F3BA1762077307840760
:100F3000950720F079F4A6F50C9436090EF4E095A7
:100F40000B2EBA2FA02D0B01B90190010C01CA0183
:100F5000A0011124FF27591B99F0593F50F4503E2E
:100F600068F11A16F040A22F232F342F4427585F20
:100F7000F3CF469537952795A795F0405395C9F738
:100F80007EF41F16BA0B620B730B840BBAF09150F0
:100F9000A1F0FF0FBB1F661F771F881FC2F70EC08F
:100FA000BA0F621F731F841F48F487957795679562
:100FB000B795F7959E3F08F0B0CF9395880F08F04E
:100FC0009927EE0F9795879508950E94C80808F411
:100FD00081E008950E94FE070C9403090E94FC081A
:100FE00058F00E94F50840F029F45F3F29F00C9476
:100FF000EC0851110C9437090C94F2080E94140962
:1010000068F39923B1F3552391F3951B550BBB2737
:10101000AA2762177307840738F09F5F5F4F220F7C
:10102000331F441FAA1FA9F335D00E2E3AF0E0E873
:1010300032D091505040E695001CCAF72BD0FE2FBD
:1010400029D0660F771F881FBB1F26173707480751
:10105000AB07B0E809F0BB0B802DBF01FF27935809
:101060005F4F3AF09E3F510578F00C94EC080C94D9
:1010700037095F3FE4F3983ED4F3869577956795FB
:10108000B795F7959F5FC9F7880F911D969587953E
:1010900097F90895E1E0660F771F881FBB1F62175D
:1010A00073078407BA0720F0621B730B840BBA0B1B
:1010B000EE1F88F7E09508950E941C0988F09F575D
:1010C00098F0B92F9927B751B0F0E1F0660F771F6C
:1010D000881F991F1AF0BA95C9F714C0B13091F062
:1010E0000E943609B1E008950C943609672F782FD5
:1010F0008827B85F39F0B93FCCF386957795679527
:10110000B395D9F73EF490958095709561957F4F92
:101110008F4F9F4F0895E89409C097FB3EF4909538
:101120008095709561957F4F8F4F9F4F9923A9F0C0
:10113000F92F96E9BB279395F6958795779567954F
:10114000B795F111F8CFFAF4BB0F11F460FF1BC093
:101150006F5F7F4F8F4F9F4F16C0882311F096E926
:1011600011C0772321F09EE8872F762F05C06623D4
:1011700071F096E8862F70E060E02AF09A95660F8D
:10118000771F881FDAF7880F9695879597F9089546
:10119000990F0008550FAA0BE0E8FEEF1616170688
:1011A000E807F907C0F012161306E407F50798F0F0
:1011B000621B730B840B950B39F40A2661F0232B09
:1011C000242B252B21F408950A2609F4A140A69585
:1011D0008FEF811D811D089597F99F6780E870E06A
:1011E00060E008959FEF80EC089500240A9416169D
:1011F000170618060906089500240A941216130605
:10120000140605060895092E0394000C11F4882392
:1012100052F0BB0F40F4BF2B11F460FF04C06F5FAE
:101220007F4F8F4F9F4F089557FD9058440F551F84
:1012300059F05F3F71F04795880F97FB991F61F058
:101240009F3F79F087950895121613061406551FCF
:10125000F2CF4695F1DF08C0161617061806991F3B
:10126000F1CF86957105610508940895E894BB2730
:1012700066277727CB0197F908950E94C80808F4DC
:101280008FEF08950E9455090C9403090E94F508F8
:1012900038F00E94FC0820F0952311F00C94EC0823
:1012A0000C94F20811240C9437090E94140970F36D
:1012B000959FC1F3950F50E0551F629FF001729FFB
:1012C000BB27F00DB11D639FAA27F00DB11DAA1F0A
:1012D000649F6627B00DA11D661F829F2227B00D57
:1012E000A11D621F739FB00DA11D621F839FA00DE2
:1012F000611D221F749F3327A00D611D231F849F32
:10130000600D211D822F762F6A2F11249F57504088
:101310009AF0F1F088234AF0EE0FFF1FBB1F661F03
:10132000771F881F91505040A9F79E3F510580F0CC
:101330000C94EC080C9437095F3FE4F3983ED4F327
:10134000869577956795B795F795E7959F5FC1F770
:10135000FE2B880F911D9695879597F908950E9409
:0C136000C808880B990B0895F894FFCF83
:10136C00000000004B02B501E20198021302F101EA
:10137C0005026E616E00696E66006F7666000D0A7E
:02138C0000005F
:00000001FF
